{
  "_format": "hh-sol-artifact-1",
  "contractName": "CryptoDevToken",
  "sourceName": "contracts/CryptoDevToken.sol",
  "abi": [
    {
      "inputs": [
        {
          "internalType": "address",
          "name": "_cryptoDevsContract",
          "type": "address"
        }
      ],
      "stateMutability": "nonpayable",
      "type": "constructor"
    },
    {
      "anonymous": false,
      "inputs": [
        {
          "indexed": true,
          "internalType": "address",
          "name": "owner",
          "type": "address"
        },
        {
          "indexed": true,
          "internalType": "address",
          "name": "spender",
          "type": "address"
        },
        {
          "indexed": false,
          "internalType": "uint256",
          "name": "value",
          "type": "uint256"
        }
      ],
      "name": "Approval",
      "type": "event"
    },
    {
      "anonymous": false,
      "inputs": [
        {
          "indexed": true,
          "internalType": "address",
          "name": "previousOwner",
          "type": "address"
        },
        {
          "indexed": true,
          "internalType": "address",
          "name": "newOwner",
          "type": "address"
        }
      ],
      "name": "OwnershipTransferred",
      "type": "event"
    },
    {
      "anonymous": false,
      "inputs": [
        {
          "indexed": true,
          "internalType": "address",
          "name": "from",
          "type": "address"
        },
        {
          "indexed": true,
          "internalType": "address",
          "name": "to",
          "type": "address"
        },
        {
          "indexed": false,
          "internalType": "uint256",
          "name": "value",
          "type": "uint256"
        }
      ],
      "name": "Transfer",
      "type": "event"
    },
    {
      "stateMutability": "payable",
      "type": "fallback"
    },
    {
      "inputs": [
        {
          "internalType": "address",
          "name": "owner",
          "type": "address"
        },
        {
          "internalType": "address",
          "name": "spender",
          "type": "address"
        }
      ],
      "name": "allowance",
      "outputs": [
        {
          "internalType": "uint256",
          "name": "",
          "type": "uint256"
        }
      ],
      "stateMutability": "view",
      "type": "function"
    },
    {
      "inputs": [
        {
          "internalType": "address",
          "name": "spender",
          "type": "address"
        },
        {
          "internalType": "uint256",
          "name": "amount",
          "type": "uint256"
        }
      ],
      "name": "approve",
      "outputs": [
        {
          "internalType": "bool",
          "name": "",
          "type": "bool"
        }
      ],
      "stateMutability": "nonpayable",
      "type": "function"
    },
    {
      "inputs": [
        {
          "internalType": "address",
          "name": "account",
          "type": "address"
        }
      ],
      "name": "balanceOf",
      "outputs": [
        {
          "internalType": "uint256",
          "name": "",
          "type": "uint256"
        }
      ],
      "stateMutability": "view",
      "type": "function"
    },
    {
      "inputs": [],
      "name": "claim",
      "outputs": [],
      "stateMutability": "nonpayable",
      "type": "function"
    },
    {
      "inputs": [],
      "name": "decimals",
      "outputs": [
        {
          "internalType": "uint8",
          "name": "",
          "type": "uint8"
        }
      ],
      "stateMutability": "view",
      "type": "function"
    },
    {
      "inputs": [
        {
          "internalType": "address",
          "name": "spender",
          "type": "address"
        },
        {
          "internalType": "uint256",
          "name": "subtractedValue",
          "type": "uint256"
        }
      ],
      "name": "decreaseAllowance",
      "outputs": [
        {
          "internalType": "bool",
          "name": "",
          "type": "bool"
        }
      ],
      "stateMutability": "nonpayable",
      "type": "function"
    },
    {
      "inputs": [
        {
          "internalType": "address",
          "name": "spender",
          "type": "address"
        },
        {
          "internalType": "uint256",
          "name": "addedValue",
          "type": "uint256"
        }
      ],
      "name": "increaseAllowance",
      "outputs": [
        {
          "internalType": "bool",
          "name": "",
          "type": "bool"
        }
      ],
      "stateMutability": "nonpayable",
      "type": "function"
    },
    {
      "inputs": [],
      "name": "maxTotalSupply",
      "outputs": [
        {
          "internalType": "uint256",
          "name": "",
          "type": "uint256"
        }
      ],
      "stateMutability": "view",
      "type": "function"
    },
    {
      "inputs": [
        {
          "internalType": "uint256",
          "name": "amount",
          "type": "uint256"
        }
      ],
      "name": "mint",
      "outputs": [],
      "stateMutability": "payable",
      "type": "function"
    },
    {
      "inputs": [],
      "name": "name",
      "outputs": [
        {
          "internalType": "string",
          "name": "",
          "type": "string"
        }
      ],
      "stateMutability": "view",
      "type": "function"
    },
    {
      "inputs": [],
      "name": "owner",
      "outputs": [
        {
          "internalType": "address",
          "name": "",
          "type": "address"
        }
      ],
      "stateMutability": "view",
      "type": "function"
    },
    {
      "inputs": [],
      "name": "renounceOwnership",
      "outputs": [],
      "stateMutability": "nonpayable",
      "type": "function"
    },
    {
      "inputs": [],
      "name": "symbol",
      "outputs": [
        {
          "internalType": "string",
          "name": "",
          "type": "string"
        }
      ],
      "stateMutability": "view",
      "type": "function"
    },
    {
      "inputs": [
        {
          "internalType": "uint256",
          "name": "",
          "type": "uint256"
        }
      ],
      "name": "tokenIdsClaimed",
      "outputs": [
        {
          "internalType": "bool",
          "name": "",
          "type": "bool"
        }
      ],
      "stateMutability": "view",
      "type": "function"
    },
    {
      "inputs": [],
      "name": "tokenPrice",
      "outputs": [
        {
          "internalType": "uint256",
          "name": "",
          "type": "uint256"
        }
      ],
      "stateMutability": "view",
      "type": "function"
    },
    {
      "inputs": [],
      "name": "tokensPerNFT",
      "outputs": [
        {
          "internalType": "uint256",
          "name": "",
          "type": "uint256"
        }
      ],
      "stateMutability": "view",
      "type": "function"
    },
    {
      "inputs": [],
      "name": "totalSupply",
      "outputs": [
        {
          "internalType": "uint256",
          "name": "",
          "type": "uint256"
        }
      ],
      "stateMutability": "view",
      "type": "function"
    },
    {
      "inputs": [
        {
          "internalType": "address",
          "name": "to",
          "type": "address"
        },
        {
          "internalType": "uint256",
          "name": "amount",
          "type": "uint256"
        }
      ],
      "name": "transfer",
      "outputs": [
        {
          "internalType": "bool",
          "name": "",
          "type": "bool"
        }
      ],
      "stateMutability": "nonpayable",
      "type": "function"
    },
    {
      "inputs": [
        {
          "internalType": "address",
          "name": "from",
          "type": "address"
        },
        {
          "internalType": "address",
          "name": "to",
          "type": "address"
        },
        {
          "internalType": "uint256",
          "name": "amount",
          "type": "uint256"
        }
      ],
      "name": "transferFrom",
      "outputs": [
        {
          "internalType": "bool",
          "name": "",
          "type": "bool"
        }
      ],
      "stateMutability": "nonpayable",
      "type": "function"
    },
    {
      "inputs": [
        {
          "internalType": "address",
          "name": "newOwner",
          "type": "address"
        }
      ],
      "name": "transferOwnership",
      "outputs": [],
      "stateMutability": "nonpayable",
      "type": "function"
    },
    {
      "inputs": [],
      "name": "withdraw",
      "outputs": [],
      "stateMutability": "nonpayable",
      "type": "function"
    },
    {
      "stateMutability": "payable",
      "type": "receive"
    }
  ],
  "bytecode": "0x60806040523480156200001157600080fd5b5060405162002620380380620026208339818101604052810190620000379190620002d4565b6040518060400160405280601081526020017f43727970746f2044657620546f6b656e000000000000000000000000000000008152506040518060400160405280600281526020017f43440000000000000000000000000000000000000000000000000000000000008152508160039080519060200190620000bb9291906200020d565b508060049080519060200190620000d49291906200020d565b505050620000f7620000eb6200013f60201b60201c565b6200014760201b60201c565b80600660006101000a81548173ffffffffffffffffffffffffffffffffffffffff021916908373ffffffffffffffffffffffffffffffffffffffff16021790555050620003b3565b600033905090565b6000600560009054906101000a900473ffffffffffffffffffffffffffffffffffffffff16905081600560006101000a81548173ffffffffffffffffffffffffffffffffffffffff021916908373ffffffffffffffffffffffffffffffffffffffff1602179055508173ffffffffffffffffffffffffffffffffffffffff168173ffffffffffffffffffffffffffffffffffffffff167f8be0079c531659141344cd1fd0a4f28419497f9722a3daafe3b4186f6b6457e060405160405180910390a35050565b8280546200021b9062000334565b90600052602060002090601f0160209004810192826200023f57600085556200028b565b82601f106200025a57805160ff19168380011785556200028b565b828001600101855582156200028b579182015b828111156200028a5782518255916020019190600101906200026d565b5b5090506200029a91906200029e565b5090565b5b80821115620002b95760008160009055506001016200029f565b5090565b600081519050620002ce8162000399565b92915050565b600060208284031215620002e757600080fd5b6000620002f784828501620002bd565b91505092915050565b60006200030d8262000314565b9050919050565b600073ffffffffffffffffffffffffffffffffffffffff82169050919050565b600060028204905060018216806200034d57607f821691505b602082108114156200036457620003636200036a565b5b50919050565b7f4e487b7100000000000000000000000000000000000000000000000000000000600052602260045260246000fd5b620003a48162000300565b8114620003b057600080fd5b50565b61225d80620003c36000396000f3fe60806040526004361061012e5760003560e01c80635f3690af116100ab57806395d89b411161006f57806395d89b41146103da578063a0712d6814610405578063a457c2d714610421578063a9059cbb1461045e578063dd62ed3e1461049b578063f2fde38b146104d857610135565b80635f3690af146102f357806370a0823114610330578063715018a61461036d5780637ff9b596146103845780638da5cb5b146103af57610135565b8063313ce567116100f2578063313ce56714610232578063395093511461025d5780633ccfd60b1461029a5780634e71d92d146102b15780635afcc2f5146102c857610135565b806306fdde0314610137578063095ea7b31461016257806318160ddd1461019f57806323b872dd146101ca5780632ab4d0521461020757610135565b3661013557005b005b34801561014357600080fd5b5061014c610501565b6040516101599190611992565b60405180910390f35b34801561016e57600080fd5b50610189600480360381019061018491906115eb565b610593565b6040516101969190611977565b60405180910390f35b3480156101ab57600080fd5b506101b46105b6565b6040516101c19190611b94565b60405180910390f35b3480156101d657600080fd5b506101f160048036038101906101ec919061159c565b6105c0565b6040516101fe9190611977565b60405180910390f35b34801561021357600080fd5b5061021c6105ef565b6040516102299190611b94565b60405180910390f35b34801561023e57600080fd5b506102476105fd565b6040516102549190611baf565b60405180910390f35b34801561026957600080fd5b50610284600480360381019061027f91906115eb565b610606565b6040516102919190611977565b60405180910390f35b3480156102a657600080fd5b506102af61063d565b005b3480156102bd57600080fd5b506102c6610707565b005b3480156102d457600080fd5b506102dd610996565b6040516102ea9190611b94565b60405180910390f35b3480156102ff57600080fd5b5061031a60048036038101906103159190611627565b6109a2565b6040516103279190611977565b60405180910390f35b34801561033c57600080fd5b5061035760048036038101906103529190611537565b6109c2565b6040516103649190611b94565b60405180910390f35b34801561037957600080fd5b50610382610a0a565b005b34801561039057600080fd5b50610399610a1e565b6040516103a69190611b94565b60405180910390f35b3480156103bb57600080fd5b506103c4610a29565b6040516103d19190611933565b60405180910390f35b3480156103e657600080fd5b506103ef610a53565b6040516103fc9190611992565b60405180910390f35b61041f600480360381019061041a9190611627565b610ae5565b005b34801561042d57600080fd5b50610448600480360381019061044391906115eb565b610bc5565b6040516104559190611977565b60405180910390f35b34801561046a57600080fd5b50610485600480360381019061048091906115eb565b610c3c565b6040516104929190611977565b60405180910390f35b3480156104a757600080fd5b506104c260048036038101906104bd9190611560565b610c5f565b6040516104cf9190611b94565b60405180910390f35b3480156104e457600080fd5b506104ff60048036038101906104fa9190611537565b610ce6565b005b60606003805461051090611d29565b80601f016020809104026020016040519081016040528092919081815260200182805461053c90611d29565b80156105895780601f1061055e57610100808354040283529160200191610589565b820191906000526020600020905b81548152906001019060200180831161056c57829003601f168201915b5050505050905090565b60008061059e610d6a565b90506105ab818585610d72565b600191505092915050565b6000600254905090565b6000806105cb610d6a565b90506105d8858285610f3d565b6105e3858585610fc9565b60019150509392505050565b69021e19e0c9bab240000081565b60006012905090565b600080610611610d6a565b90506106328185856106238589610c5f565b61062d9190611bf1565b610d72565b600191505092915050565b61064561124a565b600061064f610a29565b9050600047905060008273ffffffffffffffffffffffffffffffffffffffff168260405161067c9061191e565b60006040518083038185875af1925050503d80600081146106b9576040519150601f19603f3d011682016040523d82523d6000602084013e6106be565b606091505b5050905080610702576040517f08c379a00000000000000000000000000000000000000000000000000000000081526004016106f990611a94565b60405180910390fd5b505050565b60003390506000600660009054906101000a900473ffffffffffffffffffffffffffffffffffffffff1673ffffffffffffffffffffffffffffffffffffffff166370a08231836040518263ffffffff1660e01b81526004016107699190611933565b60206040518083038186803b15801561078157600080fd5b505afa158015610795573d6000803e3d6000fd5b505050506040513d601f19601f820116820180604052508101906107b99190611650565b9050600081116107fe576040517f08c379a00000000000000000000000000000000000000000000000000000000081526004016107f590611b34565b60405180910390fd5b6000805b82811015610930576000600660009054906101000a900473ffffffffffffffffffffffffffffffffffffffff1673ffffffffffffffffffffffffffffffffffffffff16632f745c5986846040518363ffffffff1660e01b815260040161086992919061194e565b60206040518083038186803b15801561088157600080fd5b505afa158015610895573d6000803e3d6000fd5b505050506040513d601f19601f820116820180604052508101906108b99190611650565b90506007600082815260200190815260200160002060009054906101000a900460ff1661091c576001836108ed9190611bf1565b925060016007600083815260200190815260200160002060006101000a81548160ff0219169083151502179055505b50808061092890611d5b565b915050610802565b5060008111610974576040517f08c379a000000000000000000000000000000000000000000000000000000000815260040161096b90611a54565b60405180910390fd5b61099133678ac7230489e800008361098c9190611c47565b6112c8565b505050565b678ac7230489e8000081565b60076020528060005260406000206000915054906101000a900460ff1681565b60008060008373ffffffffffffffffffffffffffffffffffffffff1673ffffffffffffffffffffffffffffffffffffffff168152602001908152602001600020549050919050565b610a1261124a565b610a1c6000611428565b565b66038d7ea4c6800081565b6000600560009054906101000a900473ffffffffffffffffffffffffffffffffffffffff16905090565b606060048054610a6290611d29565b80601f0160208091040260200160405190810160405280929190818152602001828054610a8e90611d29565b8015610adb5780601f10610ab057610100808354040283529160200191610adb565b820191906000526020600020905b815481529060010190602001808311610abe57829003601f168201915b5050505050905090565b60008166038d7ea4c68000610afa9190611c47565b905080341015610b3f576040517f08c379a0000000000000000000000000000000000000000000000000000000008152600401610b36906119d4565b60405180910390fd5b6000670de0b6b3a764000083610b559190611c47565b905069021e19e0c9bab240000081610b6b6105b6565b610b759190611bf1565b1115610bb6576040517f08c379a0000000000000000000000000000000000000000000000000000000008152600401610bad90611ad4565b60405180910390fd5b610bc033826112c8565b505050565b600080610bd0610d6a565b90506000610bde8286610c5f565b905083811015610c23576040517f08c379a0000000000000000000000000000000000000000000000000000000008152600401610c1a90611b54565b60405180910390fd5b610c308286868403610d72565b60019250505092915050565b600080610c47610d6a565b9050610c54818585610fc9565b600191505092915050565b6000600160008473ffffffffffffffffffffffffffffffffffffffff1673ffffffffffffffffffffffffffffffffffffffff16815260200190815260200160002060008373ffffffffffffffffffffffffffffffffffffffff1673ffffffffffffffffffffffffffffffffffffffff16815260200190815260200160002054905092915050565b610cee61124a565b600073ffffffffffffffffffffffffffffffffffffffff168173ffffffffffffffffffffffffffffffffffffffff161415610d5e576040517f08c379a0000000000000000000000000000000000000000000000000000000008152600401610d55906119f4565b60405180910390fd5b610d6781611428565b50565b600033905090565b600073ffffffffffffffffffffffffffffffffffffffff168373ffffffffffffffffffffffffffffffffffffffff161415610de2576040517f08c379a0000000000000000000000000000000000000000000000000000000008152600401610dd990611b14565b60405180910390fd5b600073ffffffffffffffffffffffffffffffffffffffff168273ffffffffffffffffffffffffffffffffffffffff161415610e52576040517f08c379a0000000000000000000000000000000000000000000000000000000008152600401610e4990611a14565b60405180910390fd5b80600160008573ffffffffffffffffffffffffffffffffffffffff1673ffffffffffffffffffffffffffffffffffffffff16815260200190815260200160002060008473ffffffffffffffffffffffffffffffffffffffff1673ffffffffffffffffffffffffffffffffffffffff168152602001908152602001600020819055508173ffffffffffffffffffffffffffffffffffffffff168373ffffffffffffffffffffffffffffffffffffffff167f8c5be1e5ebec7d5bd14f71427d1e84f3dd0314c0f7b2291e5b200ac8c7c3b92583604051610f309190611b94565b60405180910390a3505050565b6000610f498484610c5f565b90507fffffffffffffffffffffffffffffffffffffffffffffffffffffffffffffffff8114610fc35781811015610fb5576040517f08c379a0000000000000000000000000000000000000000000000000000000008152600401610fac90611a34565b60405180910390fd5b610fc28484848403610d72565b5b50505050565b600073ffffffffffffffffffffffffffffffffffffffff168373ffffffffffffffffffffffffffffffffffffffff161415611039576040517f08c379a000000000000000000000000000000000000000000000000000000000815260040161103090611af4565b60405180910390fd5b600073ffffffffffffffffffffffffffffffffffffffff168273ffffffffffffffffffffffffffffffffffffffff1614156110a9576040517f08c379a00000000000000000000000000000000000000000000000000000000081526004016110a0906119b4565b60405180910390fd5b6110b48383836114ee565b60008060008573ffffffffffffffffffffffffffffffffffffffff1673ffffffffffffffffffffffffffffffffffffffff1681526020019081526020016000205490508181101561113a576040517f08c379a000000000000000000000000000000000000000000000000000000000815260040161113190611a74565b60405180910390fd5b8181036000808673ffffffffffffffffffffffffffffffffffffffff1673ffffffffffffffffffffffffffffffffffffffff16815260200190815260200160002081905550816000808573ffffffffffffffffffffffffffffffffffffffff1673ffffffffffffffffffffffffffffffffffffffff16815260200190815260200160002060008282546111cd9190611bf1565b925050819055508273ffffffffffffffffffffffffffffffffffffffff168473ffffffffffffffffffffffffffffffffffffffff167fddf252ad1be2c89b69c2b068fc378daa952ba7f163c4a11628f55a4df523b3ef846040516112319190611b94565b60405180910390a36112448484846114f3565b50505050565b611252610d6a565b73ffffffffffffffffffffffffffffffffffffffff16611270610a29565b73ffffffffffffffffffffffffffffffffffffffff16146112c6576040517f08c379a00000000000000000000000000000000000000000000000000000000081526004016112bd90611ab4565b60405180910390fd5b565b600073ffffffffffffffffffffffffffffffffffffffff168273ffffffffffffffffffffffffffffffffffffffff161415611338576040517f08c379a000000000000000000000000000000000000000000000000000000000815260040161132f90611b74565b60405180910390fd5b611344600083836114ee565b80600260008282546113569190611bf1565b92505081905550806000808473ffffffffffffffffffffffffffffffffffffffff1673ffffffffffffffffffffffffffffffffffffffff16815260200190815260200160002060008282546113ab9190611bf1565b925050819055508173ffffffffffffffffffffffffffffffffffffffff16600073ffffffffffffffffffffffffffffffffffffffff167fddf252ad1be2c89b69c2b068fc378daa952ba7f163c4a11628f55a4df523b3ef836040516114109190611b94565b60405180910390a3611424600083836114f3565b5050565b6000600560009054906101000a900473ffffffffffffffffffffffffffffffffffffffff16905081600560006101000a81548173ffffffffffffffffffffffffffffffffffffffff021916908373ffffffffffffffffffffffffffffffffffffffff1602179055508173ffffffffffffffffffffffffffffffffffffffff168173ffffffffffffffffffffffffffffffffffffffff167f8be0079c531659141344cd1fd0a4f28419497f9722a3daafe3b4186f6b6457e060405160405180910390a35050565b505050565b505050565b600081359050611507816121f9565b92915050565b60008135905061151c81612210565b92915050565b60008151905061153181612210565b92915050565b60006020828403121561154957600080fd5b6000611557848285016114f8565b91505092915050565b6000806040838503121561157357600080fd5b6000611581858286016114f8565b9250506020611592858286016114f8565b9150509250929050565b6000806000606084860312156115b157600080fd5b60006115bf868287016114f8565b93505060206115d0868287016114f8565b92505060406115e18682870161150d565b9150509250925092565b600080604083850312156115fe57600080fd5b600061160c858286016114f8565b925050602061161d8582860161150d565b9150509250929050565b60006020828403121561163957600080fd5b60006116478482850161150d565b91505092915050565b60006020828403121561166257600080fd5b600061167084828501611522565b91505092915050565b61168281611ca1565b82525050565b61169181611cb3565b82525050565b60006116a282611bca565b6116ac8185611be0565b93506116bc818560208601611cf6565b6116c581611e02565b840191505092915050565b60006116dd602383611be0565b91506116e882611e13565b604082019050919050565b6000611700601783611be0565b915061170b82611e62565b602082019050919050565b6000611723602683611be0565b915061172e82611e8b565b604082019050919050565b6000611746602283611be0565b915061175182611eda565b604082019050919050565b6000611769601d83611be0565b915061177482611f29565b602082019050919050565b600061178c602783611be0565b915061179782611f52565b604082019050919050565b60006117af602683611be0565b91506117ba82611fa1565b604082019050919050565b60006117d2601483611be0565b91506117dd82611ff0565b602082019050919050565b60006117f5602083611be0565b915061180082612019565b602082019050919050565b6000611818602783611be0565b915061182382612042565b604082019050919050565b600061183b602583611be0565b915061184682612091565b604082019050919050565b600061185e600083611bd5565b9150611869826120e0565b600082019050919050565b6000611881602483611be0565b915061188c826120e3565b604082019050919050565b60006118a4602183611be0565b91506118af82612132565b604082019050919050565b60006118c7602583611be0565b91506118d282612181565b604082019050919050565b60006118ea601f83611be0565b91506118f5826121d0565b602082019050919050565b61190981611cdf565b82525050565b61191881611ce9565b82525050565b600061192982611851565b9150819050919050565b60006020820190506119486000830184611679565b92915050565b60006040820190506119636000830185611679565b6119706020830184611900565b9392505050565b600060208201905061198c6000830184611688565b92915050565b600060208201905081810360008301526119ac8184611697565b905092915050565b600060208201905081810360008301526119cd816116d0565b9050919050565b600060208201905081810360008301526119ed816116f3565b9050919050565b60006020820190508181036000830152611a0d81611716565b9050919050565b60006020820190508181036000830152611a2d81611739565b9050919050565b60006020820190508181036000830152611a4d8161175c565b9050919050565b60006020820190508181036000830152611a6d8161177f565b9050919050565b60006020820190508181036000830152611a8d816117a2565b9050919050565b60006020820190508181036000830152611aad816117c5565b9050919050565b60006020820190508181036000830152611acd816117e8565b9050919050565b60006020820190508181036000830152611aed8161180b565b9050919050565b60006020820190508181036000830152611b0d8161182e565b9050919050565b60006020820190508181036000830152611b2d81611874565b9050919050565b60006020820190508181036000830152611b4d81611897565b9050919050565b60006020820190508181036000830152611b6d816118ba565b9050919050565b60006020820190508181036000830152611b8d816118dd565b9050919050565b6000602082019050611ba96000830184611900565b92915050565b6000602082019050611bc4600083018461190f565b92915050565b600081519050919050565b600081905092915050565b600082825260208201905092915050565b6000611bfc82611cdf565b9150611c0783611cdf565b9250827fffffffffffffffffffffffffffffffffffffffffffffffffffffffffffffffff03821115611c3c57611c3b611da4565b5b828201905092915050565b6000611c5282611cdf565b9150611c5d83611cdf565b9250817fffffffffffffffffffffffffffffffffffffffffffffffffffffffffffffffff0483118215151615611c9657611c95611da4565b5b828202905092915050565b6000611cac82611cbf565b9050919050565b60008115159050919050565b600073ffffffffffffffffffffffffffffffffffffffff82169050919050565b6000819050919050565b600060ff82169050919050565b60005b83811015611d14578082015181840152602081019050611cf9565b83811115611d23576000848401525b50505050565b60006002820490506001821680611d4157607f821691505b60208210811415611d5557611d54611dd3565b5b50919050565b6000611d6682611cdf565b91507fffffffffffffffffffffffffffffffffffffffffffffffffffffffffffffffff821415611d9957611d98611da4565b5b600182019050919050565b7f4e487b7100000000000000000000000000000000000000000000000000000000600052601160045260246000fd5b7f4e487b7100000000000000000000000000000000000000000000000000000000600052602260045260246000fd5b6000601f19601f8301169050919050565b7f45524332303a207472616e7366657220746f20746865207a65726f206164647260008201527f6573730000000000000000000000000000000000000000000000000000000000602082015250565b7f45746865722073656e7420697320696e636f7272656374000000000000000000600082015250565b7f4f776e61626c653a206e6577206f776e657220697320746865207a65726f206160008201527f6464726573730000000000000000000000000000000000000000000000000000602082015250565b7f45524332303a20617070726f766520746f20746865207a65726f20616464726560008201527f7373000000000000000000000000000000000000000000000000000000000000602082015250565b7f45524332303a20696e73756666696369656e7420616c6c6f77616e6365000000600082015250565b7f596f75206861766520616c726561647920636c61696d656420616c6c2074686560008201527f20746f6b656e7300000000000000000000000000000000000000000000000000602082015250565b7f45524332303a207472616e7366657220616d6f756e742065786365656473206260008201527f616c616e63650000000000000000000000000000000000000000000000000000602082015250565b7f4661696c656420746f2073656e64204574686572000000000000000000000000600082015250565b7f4f776e61626c653a2063616c6c6572206973206e6f7420746865206f776e6572600082015250565b7f4578636565647320746865206d617820746f74616c20737570706c792061766160008201527f696c61626c652e00000000000000000000000000000000000000000000000000602082015250565b7f45524332303a207472616e736665722066726f6d20746865207a65726f20616460008201527f6472657373000000000000000000000000000000000000000000000000000000602082015250565b50565b7f45524332303a20617070726f76652066726f6d20746865207a65726f2061646460008201527f7265737300000000000000000000000000000000000000000000000000000000602082015250565b7f596f7520646f6e74206f776e20616e792043727970746f20446576204e46542760008201527f7300000000000000000000000000000000000000000000000000000000000000602082015250565b7f45524332303a2064656372656173656420616c6c6f77616e63652062656c6f7760008201527f207a65726f000000000000000000000000000000000000000000000000000000602082015250565b7f45524332303a206d696e7420746f20746865207a65726f206164647265737300600082015250565b61220281611ca1565b811461220d57600080fd5b50565b61221981611cdf565b811461222457600080fd5b5056fea2646970667358221220ebf064440b78a1282c18fef929f71aca9bef4dffb748f8fb64a8da461d2de02164736f6c63430008040033",
  "linkReferences": {},
  "deployedLinkReferences": {}
}